:020000040800F2
:10000000A006002089010008650300085D030008C0
:1000100061030008390200085F0A000800000000C0
:1000200000000000000000000000000005050008BE
:100030003D02000800000000ED030008190600085A
:10004000A3010008A3010008A3010008A301000800
:10005000A3010008A3010008A3010008A3010008F0
:10006000A3010008A3010008A3010008A3010008E0
:10007000A3010008A3010008A3010008A3010008D0
:10008000A3010008A3010008A3010008A3010008C0
:10009000A3010008A3010008A3010008A3010008B0
:1000A000A3010008A3010008A3010008A3010008A0
:1000B000A30100087D060008A3010008A3010008B1
:1000C000A3010008A3010008A3010008A301000880
:1000D000A3010008D1070008A3010008A30100083C
:1000E000A3010008A3010008A301000800F002F822
:1000F00000F03AF80AA090E8000C82448344AAF188
:100100000107DA4501D100F02FF8AFF2090EBAE885
:100110000F0013F0010F18BFFB1A43F0010318473B
:10012000A00E0000C00E0000103A24BF78C878C1AD
:10013000FAD8520724BF30C830C144BF04680C60ED
:10014000704700000023002400250026103A28BF35
:1001500078C1FBD8520728BF30C148BF0B60704739
:100160001FB51FBD10B510BD00F033F81146FFF7E5
:10017000F7FF00F013FD00F051F803B4FFF7F2FFB2
:1001800003BC00F06EFC00000948804709480047A6
:10019000FEE7FEE7FEE7FEE7FEE7FEE7FEE7FEE737
:1001A000FEE7FEE704480549054A064B7047000094
:1001B0001D060008ED000008A0000020A006002099
:1001C000A0020020A00200207047704770477047CF
:1001D0007047754600F02CF8AE4605006946534658
:1001E00020F00700854618B020B5FFF7DBFFBDE81B
:1001F00020404FF000064FF000074FF000084FF08E
:10020000000B21F00701AC46ACE8C009ACE8C0091E
:10021000ACE8C009ACE8C0098D46704710B504468B
:10022000AFF300802046BDE81040FFF7A6BF0000F6
:10023000004870473C00002000BFFEE770472DE9F2
:10024000F04102460025002600200023002400275C
:1002500091F803C00CF00F0591F803C00CF0100CDE
:10026000BCF1000F03D091F802C04CEA050591F8EB
:1002700000C0BCF1000F31D0146800202BE04FF01B
:10028000010C0CFA00F3B1F800C00CEA03069E4220
:1002900020D183004FF00F0C0CFA03F7BC4305FA92
:1002A00003FC4CEA040491F803C0BCF1280F06D10A
:1002B0004FF0010C0CFA00FCC2F814C00AE091F8EF
:1002C00003C0BCF1480F05D14FF0010C0CFA00FC43
:1002D000C2F810C0401C0828D1D31460B1F800C087
:1002E000BCF1FF0F34DD546800202EE000F1080C53
:1002F0004FF0010808FA0CF3B1F800C00CEA03064D
:100300009E4221D183004FF00F0C0CFA03F7BC433F
:1003100005FA03FC4CEA040491F803C0BCF1280F71
:1003200005D100F1080C08FA0CF8C2F8148091F815
:1003300003C0BCF1480F07D100F1080C4FF00108D1
:1003400008FA0CF8C2F81080401C0828CED354607C
:10035000BDE8F081416170470161704700BFFEE771
:1003600000BFFEE77047000070B5002100230F2298
:10037000C47804B3154C246804F4E064C4F5E06464
:10038000210AC1F10403CA40447804FA03F18478D5
:100390001440214309010E4C0678A155047804F05D
:1003A0001F050124AC4005786D11AD0005F1E02575
:1003B000C5F8004109E0047804F01F050124AC40B1
:1003C000044D0678761145F8264070BD0CED00E02E
:1003D00000E400E080E100E002490143024A1160CC
:1003E000704700000000FA050CED00E070470000C7
:1003F00029B1064AD2690243044BDA6104E0034A98
:10040000D2698243014BDA6170470000001002405C
:1004100029B1064A92690243044B9A6104E0034AF7
:1004200092698243014B9A617047000000100240BC
:1004300030B500210022002400232D4D6D6805F009
:100440000C0121B1042905D0082923D105E0294D4B
:10045000056022E0274D05601FE0254D6D6805F41D
:100460007012234D6D6805F48034022505EB92422D
:100470001CB9214D554305600BE01D4D6D6805F419
:1004800000351DB11C4D5543056002E0194D554323
:10049000056002E0174D056000BF00BF144D6D6898
:1004A00005F0F0010909154D6B5C0568DD404560FC
:1004B0000F4D6D6805F4E061090A104D6B5C4568ED
:1004C000DD4085600A4D6D6805F46051C90A0B4D29
:1004D0006B5C4568DD40C560054D6D6805F44041C5
:1004E000890B074D6B5CC568B5FBF3F5056130BD45
:1004F0000010024000127A0000093D0000000020B8
:1005000010000020704710B500F002F810BD000088
:100510000CB50020019000903348006840F4803012
:100520003149086000BF3048006800F40030009096
:100530000198401C0190009818B90198B0F5A06F7F
:10054000F1D12948006800F4003010B1012000907A
:1005500001E0002000900098012843D12348006862
:1005600040F01000214908600846006820F00300B0
:1005700008600846006840F0020008601A484068B9
:10058000194948600846406848600846406840F499
:10059000806048600846406820F47C104860084647
:1005A000406840F4E81048600846006840F08070F9
:1005B000086000BF0C48006800F000700028F9D007
:1005C0000948406820F00300074948600846406831
:1005D00040F00200486000BF0348406800F00C0093
:1005E0000828F9D10CBD0000001002400020024094
:1005F000042808D14FF0E021096941F004014FF0CF
:10060000E022116107E04FF0E021096921F00401C7
:100610004FF0E022116170477047000010B5134899
:10062000006840F001001149086008464068104920
:1006300008400E494860084600680E4908400B49CA
:1006400008600846006820F480200860084640687A
:1006500020F4FE0048604FF41F008860FFF753FF4E
:100660004FF000600449086010BD00000010024017
:100670000000FFF8FFFFF6FE08ED00E010B50121D5
:10068000114800F039F8F0B110480068401C0F49DB
:10069000086008460068C82811D3002008600C488C
:1006A000007808B9012000E00020094908700846D8
:1006B000007810B900F068FA01E000F05BFA01215F
:1006C000014800F00AF810BD000400402800002096
:1006D0002C000020CA4302827047CA43028270473E
:1006E00021B1028842F00102028004E002884FF644
:1006F000FE731A400280704730B502460020002386
:100700000024158A05EA0103958905EA010413B15D
:100710000CB1012000E0002030BD1AB183890B43E9
:10072000838102E083898B438381704700220288A2
:100730001D4B98420ED01D4B98420BD0B0F1804F0C
:1007400008D01B4B984205D01A4B984202D01A4B46
:10075000984204D14FF68F731A404B881A43174BB7
:10076000984207D0164B984204D04FF6FF431A40E8
:10077000CB881A4302808B8883850B8803850A4BBC
:1007800098420BD0094B984208D00E4B984205D0A6
:100790000D4B984202D00D4B984201D10B7A038643
:1007A0000123838270470000002C01400034014087
:1007B0000004004000080040000C00400010004011
:1007C0000014004000400140004401400048014046
:1007D00010B540F22551094800F081F860B140F2AF
:1007E0002551064800F060F8044800F033F9044948
:1007F000087001200349087010BD00000038014056
:10080000340000203500002010B586B004460121D8
:1008100044F20500FFF7FCFD4FF40070ADF8140042
:1008200003208DF8160018208DF8170005A91C4824
:10083000FFF705FD4FF48060ADF8140004208DF83B
:10084000170005A91648FFF7FAFC25208DF81000BF
:1008500000208DF811008DF8120001208DF8130092
:1008600004A8FFF781FD00940020ADF80400ADF866
:100870000600ADF80800ADF80C000C20ADF80A0039
:100880006946084800F07AF8012240F225510548EF
:1008900000F04FF80121034800F015F806B010BD34
:1008A000000801400038014010B50022002340F646
:1008B0006A14A14200D100BF0A1201249440A3B2DD
:1008C000DC43048010BD21B1828942F40052828150
:1008D00004E082894DF6FF731A408281704770B53B
:1008E0000246002400230025002040F66A16B1428B
:1008F00000D100BFC1F3421501F01F03012606FA23
:1009000003F3012D02D19689334006E0022D02D176
:10091000168A334001E0968A33400C12012606FA0B
:1009200004F41688344013B10CB1012000E000201B
:1009300070BDF0B50346002400260025002040F6D7
:100940006A17B94200D100BF1846C1F3421401F042
:100950001F06012707FA06F5012C01D10C3004E02F
:10096000022C01D1103000E014301AB107682F4377
:10097000076002E00768AF430760F0BD2DE9F0476C
:1009800086B005460E460024A24600BFA1460027B9
:10099000B08900B100BF2F462C8A4CF6FF7004408E
:1009A000F08804432C82AC894EF6F3100440B088E2
:1009B00031890843718908430443AC81AC8A4FF6FE
:1009C000FF400440B0890443AC8201A8FFF730FD2A
:1009D0001F48874202D1DDF810A001E0DDF80CA02D
:1009E000A88900F4004040B10AEBCA0000EB0A10ED
:1009F00031684900B0FBF1F807E00AEBCA0000EBF0
:100A00000A1031688900B0FBF1F86420B8FBF0F0FF
:100A100004012009642101FB1089A88900F4004029
:100A200040B1322000EBC900B0FBF1F000F007004C
:100A3000044308E0322000EB09106421B0FBF1F020
:100A400000F00F0004432C8106B0BDE8F0870000E1
:100A50000038014001468888C0F30800704700BF95
:100A6000FEE700BF7047000010B56FF00400FFF70D
:100A7000BFFD0A4800680A49B0FBF1F00949087057
:100A80000846007800EB4001C1EBC0104FF6FF7143
:100A900001EAC0000449088010BD000014000020D5
:100AA00000127A002E000020300000200146114A7A
:100AB00012884A434FF0E0235A6100229A611A4695
:100AC000126942F001021A6100BF4FF0E022106982
:100AD00000F001021AB100F48032002AF5D04FF084
:100AE000E022126922F001024FF0E0231A61002295
:100AF0009A617047300000200146114A12784A433B
:100B00004FF0E0235A6100229A611A46126942F0BE
:100B100001021A6100BF4FF0E022106900F00102EB
:100B20001AB100F48032002AF5D04FF0E0221269A9
:100B300022F001024FF0E0231A6100229A6170470F
:100B40002E00002008B501211020FFF761FC4FF4B2
:100B50000050ADF8000003208DF8020010208DF841
:100B6000030069460248FFF76AFB00F003F808BD7E
:100B70000010014010B54FF400510248FFF7ECFBA4
:100B800010BD00000010014010B54FF400510248A4
:100B9000FFF7E0FB10BD00000010014008B5002089
:100BA0000090FFF761FFFFF7CDFF4FF4E130FFF753
:100BB0002BFE00F06FF800F0C1F919E069465E20E5
:100BC00000F01AF8BDF8000044F23611884206D150
:100BD00000210848FFF784FDFFF7D6FF03E001215D
:100BE0000448FFF77DFD002000900A20FFF75EFF1C
:100BF000E4E70000000400402DE9F04104460D4602
:100C00000026002700F008F9A02000F03FF920B9E5
:100C100000F022F90020BDE8F0811420FFF76CFFFE
:100C2000201200F033F918B900F016F90020F2E7AD
:100C30001420FFF761FFE0B200F028F918B900F0C6
:100C40000BF90020E7E71420FFF756FF00F004F946
:100C50001420FFF751FF00F0DFF8A12000F016F993
:100C600018B900F0F9F80020D5E71420FFF744FF89
:100C700000F048F8064600F085F800F043F8074613
:100C800000F0A8F800F0E8F847EA062028800120E4
:100C9000C1E7000008B501210820FFF7B9FB4FF4B8
:100CA0000060ADF8000048208DF8030003208DF8A7
:100CB000020069461248FFF7C2FA4FF4006110487B
:100CC000FFF74AFB4FF48060ADF8000010208DF86C
:100CD000030069460A48FFF7B2FA4FF480610848FA
:100CE000FFF73AFB0648001D006820F470400449F5
:100CF000091D08600846006840F44050086008BDBF
:100D0000000C014070B500241B48006820F47040BE
:100D1000194908600846006840F400400860052052
:100D2000FFF7EAFE082517E00520FFF7E5FE0120A2
:100D3000124908600520FFF7DFFE6006040E104828
:100D4000D0F82C0108B1601CC4B200200B49086027
:100D50000520FFF7D1FE6D1E002DE5D10648006885
:100D600020F47040044908600846006840F4405090
:100D70000860204670BD0000040C0140A88121429B
:100D80000080214210B50020104908600520FFF7BF
:100D9000B3FE00200E49C1F8A8010520FFF7ACFE04
:100DA00001200A49091F08600520FFF7A5FE002061
:100DB0000749C1F8A8010520FFF79EFE012003495D
:100DC00008600520FFF798FE10BD0000AC812142AD
:100DD0000080214210B501200D4908600520FFF771
:100DE0008BFE01200B49C1F8A8010520FFF784FE06
:100DF00000200749091F08600520FFF77DFE01203C
:100E00000449C1F8AC010520FFF776FE10BD0000D3
:100E1000AC8121420080214210B501200C490860BC
:100E20000520FFF769FE01200A49C1F8A801052045
:100E3000FFF762FE0020064908600520FFF75CFE10
:100E400000200449C1F8A8010520FFF755FE10BD98
:100E5000AC8121420080214210B500200949086080
:100E60000520FFF749FE01200749C1F8A801052028
:100E7000FFF742FE0120034908600520FFF73CFE12
:100E800010BD0000AC8121420080214270B50646B1
:100E900000241AE006FA04F000F0800018B10120E6
:100EA0002349086002E00020214908600520FFF77F
:100EB00023FE01201E49091F08600520FFF71CFEC4
:100EC00000201C49C1F8A801641C082CE2D31A4870
:100ED000006820F47040184908600846006840F433
:100EE000004008600520FFF707FE01201049091F98
:100EF00008600520FFF700FE0E48D0F82C0108B16D
:100F0000002500E0012500200949091F086005208F
:100F1000FFF7F2FD0848006820F4704006490860B9
:100F20000846006840F440500860284670BD000044
:100F3000AC81214200802142040C014010B500F038
:100F40002BF800F001F810BD0EB501210220FFF7CB
:100F50004FFA40F2E730ADF804004720ADF800004A
:100F60000020ADF80600ADF802008DF808006946D3
:100F70000848FFF7DBFB01210648FFF7ABFB012226
:100F800011460448FFF7C9FB00210248FFF7A8FB00
:100F90000EBD00000004004008B54FF4E060FFF70C
:100FA0001BFA1D208DF8000002208DF801008DF83D
:100FB000020001208DF803006846FFF7D5F908BD4F
:100FC000E00F0008000000203C000000280100089D
:100FD0001C1000083C0000206406000044010008CA
:100FE00000000000010203040102030406070809CF
:100FF0000204060800A24A040000000000000000ED
:1010000001020304060708090000000000000000B8
:0C101000000000000000000000000000D4
:04000005080000ED02
:00000001FF
